{
  "contractName": "MediStore",
  "abi": [
    {
      "inputs": [
        {
          "internalType": "address",
          "name": "",
          "type": "address"
        },
        {
          "internalType": "uint256",
          "name": "",
          "type": "uint256"
        }
      ],
      "name": "doctorsPermissions",
      "outputs": [
        {
          "internalType": "address",
          "name": "",
          "type": "address"
        }
      ],
      "stateMutability": "view",
      "type": "function",
      "constant": true
    },
    {
      "inputs": [
        {
          "internalType": "string",
          "name": "_name",
          "type": "string"
        },
        {
          "internalType": "string",
          "name": "_role",
          "type": "string"
        },
        {
          "internalType": "string",
          "name": "_dob",
          "type": "string"
        },
        {
          "internalType": "string",
          "name": "_userAddress",
          "type": "string"
        }
      ],
      "name": "newUser",
      "outputs": [],
      "stateMutability": "nonpayable",
      "type": "function"
    },
    {
      "inputs": [
        {
          "internalType": "address",
          "name": "_userAddress",
          "type": "address"
        }
      ],
      "name": "getUserData",
      "outputs": [
        {
          "internalType": "address",
          "name": "id",
          "type": "address"
        },
        {
          "internalType": "string",
          "name": "name",
          "type": "string"
        },
        {
          "internalType": "string",
          "name": "role",
          "type": "string"
        },
        {
          "internalType": "string",
          "name": "dob",
          "type": "string"
        },
        {
          "internalType": "string",
          "name": "userAddress",
          "type": "string"
        },
        {
          "internalType": "int256",
          "name": "totalDoctors",
          "type": "int256"
        },
        {
          "internalType": "int256",
          "name": "totalDocuments",
          "type": "int256"
        },
        {
          "internalType": "int256",
          "name": "totalPatient",
          "type": "int256"
        }
      ],
      "stateMutability": "view",
      "type": "function",
      "constant": true
    },
    {
      "inputs": [
        {
          "internalType": "address",
          "name": "_userAddress",
          "type": "address"
        }
      ],
      "name": "getPatientDocuments",
      "outputs": [
        {
          "internalType": "string[]",
          "name": "",
          "type": "string[]"
        }
      ],
      "stateMutability": "view",
      "type": "function",
      "constant": true
    },
    {
      "inputs": [
        {
          "internalType": "string",
          "name": "_data",
          "type": "string"
        }
      ],
      "name": "addPatientDocument",
      "outputs": [],
      "stateMutability": "nonpayable",
      "type": "function"
    },
    {
      "inputs": [
        {
          "internalType": "uint256",
          "name": "_index",
          "type": "uint256"
        }
      ],
      "name": "removePatientDocument",
      "outputs": [],
      "stateMutability": "nonpayable",
      "type": "function"
    },
    {
      "inputs": [
        {
          "internalType": "address",
          "name": "_doctor",
          "type": "address"
        }
      ],
      "name": "giveAccessToDoctor",
      "outputs": [],
      "stateMutability": "nonpayable",
      "type": "function"
    },
    {
      "inputs": [
        {
          "internalType": "address",
          "name": "_doctor",
          "type": "address"
        },
        {
          "internalType": "uint256",
          "name": "_index",
          "type": "uint256"
        }
      ],
      "name": "revokeAccessFromDoctor",
      "outputs": [],
      "stateMutability": "nonpayable",
      "type": "function"
    },
    {
      "inputs": [
        {
          "internalType": "address",
          "name": "_doctor",
          "type": "address"
        }
      ],
      "name": "getUsersOfParticularDoctor",
      "outputs": [
        {
          "internalType": "address[]",
          "name": "",
          "type": "address[]"
        }
      ],
      "stateMutability": "view",
      "type": "function",
      "constant": true
    }
  ],
  "bytecode": "0x608060405234801561001057600080fd5b50611a8f806100206000396000f3fe608060405234801561001057600080fd5b50600436106100935760003560e01c80638f85b98a116100665780638f85b98a14610130578063c81bcdeb14610160578063e01f2aea1461017c578063fdd1985714610198578063ffc9896b146101b457610093565b806328b2b968146100985780635b2f2a08146100b45780637049579c146100d057806376e695ad14610100575b600080fd5b6100b260048036038101906100ad91906111fc565b6101eb565b005b6100ce60048036038101906100c99190611261565b610340565b005b6100ea60048036038101906100e591906111fc565b610417565b6040516100f79190611647565b60405180910390f35b61011a60048036038101906101159190611225565b6104e4565b6040516101279190611592565b60405180910390f35b61014a600480360381019061014591906111fc565b610532565b6040516101579190611669565b60405180910390f35b61017a600480360381019061017591906112a2565b61064c565b005b61019660048036038101906101919190611365565b6108ff565b005b6101b260048036038101906101ad9190611225565b6109ea565b005b6101ce60048036038101906101c991906111fc565b610c53565b6040516101e29897969594939291906115ad565b60405180910390f35b60016000803373ffffffffffffffffffffffffffffffffffffffff1673ffffffffffffffffffffffffffffffffffffffff168152602001908152602001600020600601600082825461023d91906117ab565b9250508190555060016000808373ffffffffffffffffffffffffffffffffffffffff1673ffffffffffffffffffffffffffffffffffffffff168152602001908152602001600020600801600082825461029691906117ab565b92505081905550600160008273ffffffffffffffffffffffffffffffffffffffff1673ffffffffffffffffffffffffffffffffffffffff168152602001908152602001600020339080600181540180825580915050600190039060005260206000200160009091909190916101000a81548173ffffffffffffffffffffffffffffffffffffffff021916908373ffffffffffffffffffffffffffffffffffffffff16021790555050565b6000803373ffffffffffffffffffffffffffffffffffffffff1673ffffffffffffffffffffffffffffffffffffffff168152602001908152602001600020600501819080600181540180825580915050600190039060005260206000200160009091909190915090805190602001906103ba929190611087565b5060016000803373ffffffffffffffffffffffffffffffffffffffff1673ffffffffffffffffffffffffffffffffffffffff168152602001908152602001600020600701600082825461040d91906117ab565b9250508190555050565b6060600160008373ffffffffffffffffffffffffffffffffffffffff1673ffffffffffffffffffffffffffffffffffffffff1681526020019081526020016000208054806020026020016040519081016040528092919081815260200182805480156104d857602002820191906000526020600020905b8160009054906101000a900473ffffffffffffffffffffffffffffffffffffffff1673ffffffffffffffffffffffffffffffffffffffff168152602001906001019080831161048e575b50505050509050919050565b6001602052816000526040600020818154811061050057600080fd5b906000526020600020016000915091509054906101000a900473ffffffffffffffffffffffffffffffffffffffff1681565b60606000808373ffffffffffffffffffffffffffffffffffffffff1673ffffffffffffffffffffffffffffffffffffffff168152602001908152602001600020600501805480602002602001604051908101604052809291908181526020016000905b828210156106415783829060005260206000200180546105b49061195b565b80601f01602080910402602001604051908101604052809291908181526020018280546105e09061195b565b801561062d5780601f106106025761010080835404028352916020019161062d565b820191906000526020600020905b81548152906001019060200180831161061057829003601f168201915b505050505081526020019060010190610595565b505050509050919050565b336000803373ffffffffffffffffffffffffffffffffffffffff1673ffffffffffffffffffffffffffffffffffffffff16815260200190815260200160002060000160006101000a81548173ffffffffffffffffffffffffffffffffffffffff021916908373ffffffffffffffffffffffffffffffffffffffff160217905550836000803373ffffffffffffffffffffffffffffffffffffffff1673ffffffffffffffffffffffffffffffffffffffff1681526020019081526020016000206001019080519060200190610721929190611087565b50826000803373ffffffffffffffffffffffffffffffffffffffff1673ffffffffffffffffffffffffffffffffffffffff1681526020019081526020016000206002019080519060200190610777929190611087565b50816000803373ffffffffffffffffffffffffffffffffffffffff1673ffffffffffffffffffffffffffffffffffffffff16815260200190815260200160002060030190805190602001906107cd929190611087565b50806000803373ffffffffffffffffffffffffffffffffffffffff1673ffffffffffffffffffffffffffffffffffffffff1681526020019081526020016000206004019080519060200190610823929190611087565b5060008060003373ffffffffffffffffffffffffffffffffffffffff1673ffffffffffffffffffffffffffffffffffffffff1681526020019081526020016000206006018190555060008060003373ffffffffffffffffffffffffffffffffffffffff1673ffffffffffffffffffffffffffffffffffffffff1681526020019081526020016000206007018190555060008060003373ffffffffffffffffffffffffffffffffffffffff1673ffffffffffffffffffffffffffffffffffffffff1681526020019081526020016000206008018190555050505050565b6000803373ffffffffffffffffffffffffffffffffffffffff1673ffffffffffffffffffffffffffffffffffffffff1681526020019081526020016000206005018181548110610978577f4e487b7100000000000000000000000000000000000000000000000000000000600052603260045260246000fd5b90600052602060002001600061098e919061110d565b60016000803373ffffffffffffffffffffffffffffffffffffffff1673ffffffffffffffffffffffffffffffffffffffff16815260200190815260200160002060070160008282546109e0919061183f565b9250508190555050565b3373ffffffffffffffffffffffffffffffffffffffff16600160008473ffffffffffffffffffffffffffffffffffffffff1673ffffffffffffffffffffffffffffffffffffffff1681526020019081526020016000208281548110610a78577f4e487b7100000000000000000000000000000000000000000000000000000000600052603260045260246000fd5b9060005260206000200160009054906101000a900473ffffffffffffffffffffffffffffffffffffffff1673ffffffffffffffffffffffffffffffffffffffff1614610af9576040517f08c379a0000000000000000000000000000000000000000000000000000000008152600401610af09061168b565b60405180910390fd5b600160008373ffffffffffffffffffffffffffffffffffffffff1673ffffffffffffffffffffffffffffffffffffffff1681526020019081526020016000208181548110610b70577f4e487b7100000000000000000000000000000000000000000000000000000000600052603260045260246000fd5b9060005260206000200160006101000a81549073ffffffffffffffffffffffffffffffffffffffff021916905560016000803373ffffffffffffffffffffffffffffffffffffffff1673ffffffffffffffffffffffffffffffffffffffff1681526020019081526020016000206006016000828254610bef919061183f565b9250508190555060016000808473ffffffffffffffffffffffffffffffffffffffff1673ffffffffffffffffffffffffffffffffffffffff1681526020019081526020016000206008016000828254610c48919061183f565b925050819055505050565b60006060806060806000806000806000808b73ffffffffffffffffffffffffffffffffffffffff1673ffffffffffffffffffffffffffffffffffffffff168152602001908152602001600020604051806101200160405290816000820160009054906101000a900473ffffffffffffffffffffffffffffffffffffffff1673ffffffffffffffffffffffffffffffffffffffff1673ffffffffffffffffffffffffffffffffffffffff168152602001600182018054610d119061195b565b80601f0160208091040260200160405190810160405280929190818152602001828054610d3d9061195b565b8015610d8a5780601f10610d5f57610100808354040283529160200191610d8a565b820191906000526020600020905b815481529060010190602001808311610d6d57829003601f168201915b50505050508152602001600282018054610da39061195b565b80601f0160208091040260200160405190810160405280929190818152602001828054610dcf9061195b565b8015610e1c5780601f10610df157610100808354040283529160200191610e1c565b820191906000526020600020905b815481529060010190602001808311610dff57829003601f168201915b50505050508152602001600382018054610e359061195b565b80601f0160208091040260200160405190810160405280929190818152602001828054610e619061195b565b8015610eae5780601f10610e8357610100808354040283529160200191610eae565b820191906000526020600020905b815481529060010190602001808311610e9157829003601f168201915b50505050508152602001600482018054610ec79061195b565b80601f0160208091040260200160405190810160405280929190818152602001828054610ef39061195b565b8015610f405780601f10610f1557610100808354040283529160200191610f40565b820191906000526020600020905b815481529060010190602001808311610f2357829003601f168201915b5050505050815260200160058201805480602002602001604051908101604052809291908181526020016000905b8282101561101a578382906000526020600020018054610f8d9061195b565b80601f0160208091040260200160405190810160405280929190818152602001828054610fb99061195b565b80156110065780601f10610fdb57610100808354040283529160200191611006565b820191906000526020600020905b815481529060010190602001808311610fe957829003601f168201915b505050505081526020019060010190610f6e565b50505050815260200160068201548152602001600782015481526020016008820154815250509050806000015181602001518260400151836060015184608001518560c001518660e001518761010001519850985098509850985098509850985050919395975091939597565b8280546110939061195b565b90600052602060002090601f0160209004810192826110b557600085556110fc565b82601f106110ce57805160ff19168380011785556110fc565b828001600101855582156110fc579182015b828111156110fb5782518255916020019190600101906110e0565b5b509050611109919061114d565b5090565b5080546111199061195b565b6000825580601f1061112b575061114a565b601f016020900490600052602060002090810190611149919061114d565b5b50565b5b8082111561116657600081600090555060010161114e565b5090565b600061117d611178846116dc565b6116ab565b90508281526020810184848401111561119557600080fd5b6111a0848285611919565b509392505050565b6000813590506111b781611a2b565b92915050565b600082601f8301126111ce57600080fd5b81356111de84826020860161116a565b91505092915050565b6000813590506111f681611a42565b92915050565b60006020828403121561120e57600080fd5b600061121c848285016111a8565b91505092915050565b6000806040838503121561123857600080fd5b6000611246858286016111a8565b9250506020611257858286016111e7565b9150509250929050565b60006020828403121561127357600080fd5b600082013567ffffffffffffffff81111561128d57600080fd5b611299848285016111bd565b91505092915050565b600080600080608085870312156112b857600080fd5b600085013567ffffffffffffffff8111156112d257600080fd5b6112de878288016111bd565b945050602085013567ffffffffffffffff8111156112fb57600080fd5b611307878288016111bd565b935050604085013567ffffffffffffffff81111561132457600080fd5b611330878288016111bd565b925050606085013567ffffffffffffffff81111561134d57600080fd5b611359878288016111bd565b91505092959194509250565b60006020828403121561137757600080fd5b6000611385848285016111e7565b91505092915050565b600061139a83836113ba565b60208301905092915050565b60006113b283836114ba565b905092915050565b6113c3816118d3565b82525050565b6113d2816118d3565b82525050565b60006113e38261172c565b6113ed8185611767565b93506113f88361170c565b8060005b83811015611429578151611410888261138e565b975061141b8361174d565b9250506001810190506113fc565b5085935050505092915050565b600061144182611737565b61144b8185611778565b93508360208202850161145d8561171c565b8060005b85811015611499578484038952815161147a85826113a6565b94506114858361175a565b925060208a01995050600181019050611461565b50829750879550505050505092915050565b6114b4816118e5565b82525050565b60006114c582611742565b6114cf8185611789565b93506114df818560208601611928565b6114e881611a1a565b840191505092915050565b60006114fe82611742565b611508818561179a565b9350611518818560208601611928565b61152181611a1a565b840191505092915050565b600061153960318361179a565b91507f596f752063616e206f6e6c79207265766f6b652061636365737320746f20796f60008301527f7572206f776e20646f63756d656e74732e0000000000000000000000000000006020830152604082019050919050565b60006020820190506115a760008301846113c9565b92915050565b6000610100820190506115c3600083018b6113c9565b81810360208301526115d5818a6114f3565b905081810360408301526115e981896114f3565b905081810360608301526115fd81886114f3565b9050818103608083015261161181876114f3565b905061162060a08301866114ab565b61162d60c08301856114ab565b61163a60e08301846114ab565b9998505050505050505050565b6000602082019050818103600083015261166181846113d8565b905092915050565b600060208201905081810360008301526116838184611436565b905092915050565b600060208201905081810360008301526116a48161152c565b9050919050565b6000604051905081810181811067ffffffffffffffff821117156116d2576116d16119eb565b5b8060405250919050565b600067ffffffffffffffff8211156116f7576116f66119eb565b5b601f19601f8301169050602081019050919050565b6000819050602082019050919050565b6000819050602082019050919050565b600081519050919050565b600081519050919050565b600081519050919050565b6000602082019050919050565b6000602082019050919050565b600082825260208201905092915050565b600082825260208201905092915050565b600082825260208201905092915050565b600082825260208201905092915050565b60006117b6826118e5565b91506117c1836118e5565b9250817f7fffffffffffffffffffffffffffffffffffffffffffffffffffffffffffffff038313600083121516156117fc576117fb61198d565b5b817f80000000000000000000000000000000000000000000000000000000000000000383126000831216156118345761183361198d565b5b828201905092915050565b600061184a826118e5565b9150611855836118e5565b9250827f8000000000000000000000000000000000000000000000000000000000000000018212600084121516156118905761188f61198d565b5b827f7fffffffffffffffffffffffffffffffffffffffffffffffffffffffffffffff0182136000841216156118c8576118c761198d565b5b828203905092915050565b60006118de826118ef565b9050919050565b6000819050919050565b600073ffffffffffffffffffffffffffffffffffffffff82169050919050565b6000819050919050565b82818337600083830152505050565b60005b8381101561194657808201518184015260208101905061192b565b83811115611955576000848401525b50505050565b6000600282049050600182168061197357607f821691505b60208210811415611987576119866119bc565b5b50919050565b7f4e487b7100000000000000000000000000000000000000000000000000000000600052601160045260246000fd5b7f4e487b7100000000000000000000000000000000000000000000000000000000600052602260045260246000fd5b7f4e487b7100000000000000000000000000000000000000000000000000000000600052604160045260246000fd5b6000601f19601f8301169050919050565b611a34816118d3565b8114611a3f57600080fd5b50565b611a4b8161190f565b8114611a5657600080fd5b5056fea26469706673582212205a540e698ac3be0dd673b4d4fb2c62e7d46b60dfd3e092ca56c6b0204e6c986b64736f6c63430008000033",
  "immutableReferences": {},
  "source": "// SPDX-License-Identifier: UNLICENSED\r\npragma solidity >=0.8.0;\r\n\r\ncontract MediStore {\r\n    /*\r\n     * List Of Every User Details.\r\n     * mapping: userAddress -> userDetails\r\n     */\r\n    mapping(address => User) users;\r\n\r\n    /*\r\n     * A user can specify, which doctors are allowed to view their medical records.\r\n     * Access is granted, when the user adds his address to a doctors list of patients.\r\n     * As soon as the user address is removed from the list, access for the doctor is revoked.\r\n     *\r\n     * mapping: doctorsAddress -> patientsAddresses\r\n     */\r\n    mapping(address => address[]) public doctorsPermissions;\r\n\r\n    /*\r\n     * Patient & Doctor Structure\r\n     */\r\n    struct User {\r\n        address id;\r\n        string name;\r\n        string role;\r\n        string dob;\r\n        string userAddress;\r\n        string[] data;\r\n        int256 totalDoctors;\r\n        int256 totalDocuments;\r\n        int256 totalPatient;\r\n    }\r\n\r\n    /*\r\n     * Create a new user\r\n     */\r\n    function newUser(\r\n        string memory _name,\r\n        string memory _role,\r\n        string memory _dob,\r\n        string memory _userAddress\r\n    ) public {\r\n        users[msg.sender].id = msg.sender;\r\n        users[msg.sender].name = _name;\r\n        users[msg.sender].role = _role;\r\n        users[msg.sender].dob = _dob;\r\n        users[msg.sender].userAddress = _userAddress;\r\n        users[msg.sender].totalDoctors = 0;\r\n        users[msg.sender].totalDocuments = 0;\r\n        users[msg.sender].totalPatient = 0;\r\n    }\r\n\r\n    /*\r\n     * Get User Data\r\n     */\r\n    function getUserData(address _userAddress)\r\n        public\r\n        view\r\n        returns (\r\n            address id,\r\n            string memory name,\r\n            string memory role,\r\n            string memory dob,\r\n            string memory userAddress,\r\n            int256 totalDoctors,\r\n            int256 totalDocuments,\r\n            int256 totalPatient\r\n        )\r\n    {\r\n        /* Store Data in Memory\r\n         * Directly Processing deeping Nested Object,\r\n         * Create Issue\r\n         */\r\n        User memory _user = users[_userAddress];\r\n\r\n        return (\r\n            _user.id,\r\n            _user.name,\r\n            _user.role,\r\n            _user.dob,\r\n            _user.userAddress,\r\n            _user.totalDoctors,\r\n            _user.totalDocuments,\r\n            _user.totalPatient\r\n        );\r\n    }\r\n\r\n    /*\r\n     * Get All Patient Documents\r\n     */\r\n    function getPatientDocuments(address _userAddress)\r\n        public\r\n        view\r\n        returns (string[] memory)\r\n    {\r\n        return users[_userAddress].data;\r\n    }\r\n\r\n    /*\r\n     * Add Patient Document\r\n     */\r\n    function addPatientDocument(string memory _data) public {\r\n        users[msg.sender].data.push(_data);\r\n        users[msg.sender].totalDocuments += 1;\r\n    }\r\n\r\n    /*\r\n     * Remove Patient Document\r\n     */\r\n    function removePatientDocument(uint256 _index) public {\r\n        delete users[msg.sender].data[_index];\r\n        users[msg.sender].totalDocuments -= 1;\r\n    }\r\n\r\n    /*\r\n     * Allow doctor to view all your documents.\r\n     */\r\n    function giveAccessToDoctor(address _doctor) public {\r\n        // Update User Total Doctos Count\r\n        users[msg.sender].totalDoctors += 1;\r\n        // Update Doctor Total Patient Count\r\n        users[_doctor].totalPatient += 1;\r\n        // Give Access to Doctor\r\n        doctorsPermissions[_doctor].push(msg.sender);\r\n    }\r\n\r\n    /*\r\n     * Revoke doctors access from your documents.\r\n     */\r\n    function revokeAccessFromDoctor(address _doctor, uint256 _index) public {\r\n        require(\r\n            doctorsPermissions[_doctor][_index] == msg.sender,\r\n            \"You can only revoke access to your own documents.\"\r\n        );\r\n        // Remove User Address from Doctor Permission list\r\n        delete doctorsPermissions[_doctor][_index];\r\n        // Update Paitent Total Document Count\r\n        users[msg.sender].totalDoctors -= 1;\r\n        // Update Doctor Total Patient Count\r\n        users[_doctor].totalPatient -= 1;\r\n    }\r\n\r\n    /*\r\n     * Get All User of Particular Doctor\r\n     */\r\n    function getUsersOfParticularDoctor(address _doctor)\r\n        public\r\n        view\r\n        returns (address[] memory)\r\n    {\r\n        return doctorsPermissions[_doctor];\r\n    }\r\n}\r\n",
  "sourcePath": "E:/Workspace/Project/MediStore/frontend/src/contracts/MediStore.sol",
  "compiler": {
    "name": "solc",
    "version": "0.8.0+commit.c7dfd78e.Emscripten.clang"
  },
  "schemaVersion": "3.2.3",
  "updatedAt": "2022-02-27T11:40:13.957Z",
  "networkType": "ethereum",
  "devdoc": {
    "kind": "dev",
    "methods": {},
    "version": 1
  },
  "userdoc": {
    "kind": "user",
    "methods": {},
    "version": 1
  }
}