{
  "contractName": "MediStore",
  "abi": [
    {
      "inputs": [
        {
          "internalType": "address",
          "name": "",
          "type": "address"
        },
        {
          "internalType": "uint256",
          "name": "",
          "type": "uint256"
        }
      ],
      "name": "doctorsPermissions",
      "outputs": [
        {
          "internalType": "address",
          "name": "",
          "type": "address"
        }
      ],
      "stateMutability": "view",
      "type": "function",
      "constant": true
    },
    {
      "inputs": [
        {
          "internalType": "string",
          "name": "_name",
          "type": "string"
        },
        {
          "internalType": "string",
          "name": "_role",
          "type": "string"
        },
        {
          "internalType": "string",
          "name": "_dob",
          "type": "string"
        },
        {
          "internalType": "string",
          "name": "_userAddress",
          "type": "string"
        }
      ],
      "name": "newUser",
      "outputs": [],
      "stateMutability": "nonpayable",
      "type": "function"
    },
    {
      "inputs": [
        {
          "internalType": "string",
          "name": "_data",
          "type": "string"
        }
      ],
      "name": "addImage",
      "outputs": [],
      "stateMutability": "nonpayable",
      "type": "function"
    },
    {
      "inputs": [],
      "name": "getUserData",
      "outputs": [
        {
          "internalType": "address",
          "name": "id",
          "type": "address"
        },
        {
          "internalType": "string",
          "name": "name",
          "type": "string"
        },
        {
          "internalType": "string",
          "name": "role",
          "type": "string"
        },
        {
          "internalType": "string",
          "name": "dob",
          "type": "string"
        },
        {
          "internalType": "string",
          "name": "userAddress",
          "type": "string"
        },
        {
          "internalType": "uint256",
          "name": "dataSize",
          "type": "uint256"
        },
        {
          "internalType": "int256",
          "name": "totalDoctors",
          "type": "int256"
        }
      ],
      "stateMutability": "view",
      "type": "function",
      "constant": true
    },
    {
      "inputs": [],
      "name": "getDataSize",
      "outputs": [
        {
          "internalType": "uint256",
          "name": "",
          "type": "uint256"
        }
      ],
      "stateMutability": "view",
      "type": "function",
      "constant": true
    },
    {
      "inputs": [
        {
          "internalType": "uint256",
          "name": "_index",
          "type": "uint256"
        }
      ],
      "name": "getData",
      "outputs": [
        {
          "internalType": "string",
          "name": "",
          "type": "string"
        }
      ],
      "stateMutability": "view",
      "type": "function",
      "constant": true
    },
    {
      "inputs": [
        {
          "internalType": "address",
          "name": "_doctor",
          "type": "address"
        }
      ],
      "name": "giveAccessToDoctor",
      "outputs": [],
      "stateMutability": "nonpayable",
      "type": "function"
    },
    {
      "inputs": [
        {
          "internalType": "address",
          "name": "doctor",
          "type": "address"
        },
        {
          "internalType": "uint256",
          "name": "index",
          "type": "uint256"
        }
      ],
      "name": "revokeAccessFromDoctor",
      "outputs": [],
      "stateMutability": "nonpayable",
      "type": "function"
    },
    {
      "inputs": [
        {
          "internalType": "address",
          "name": "_doctor",
          "type": "address"
        }
      ],
      "name": "getUsersOfParticularDoctor",
      "outputs": [
        {
          "internalType": "address[]",
          "name": "",
          "type": "address[]"
        }
      ],
      "stateMutability": "view",
      "type": "function",
      "constant": true
    }
  ],
  "bytecode": "0x608060405234801561001057600080fd5b50611762806100206000396000f3fe608060405234801561001057600080fd5b50600436106100935760003560e01c80637049579c116100665780637049579c1461012457806376e695ad146101545780637d036b2714610184578063c81bcdeb146101a2578063fdd19857146101be57610093565b80630178fe3f14610098578063166f1779146100c857806322e8c87d146100e457806328b2b96814610108575b600080fd5b6100b260048036038101906100ad9190611129565b6101da565b6040516100bf919061136b565b60405180910390f35b6100e260048036038101906100dd9190611025565b6102ef565b005b6100ec61036d565b6040516100ff97969594939291906112be565b60405180910390f35b610122600480360381019061011d9190610fc0565b6107ac565b005b61013e60048036038101906101399190610fc0565b6108a8565b60405161014b9190611349565b60405180910390f35b61016e60048036038101906101699190610fe9565b610975565b60405161017b91906112a3565b60405180910390f35b61018c6109c3565b60405161019991906113ad565b60405180910390f35b6101bc60048036038101906101b79190611066565b610a0f565b005b6101d860048036038101906101d39190610fe9565b610c7b565b005b60606000803373ffffffffffffffffffffffffffffffffffffffff1673ffffffffffffffffffffffffffffffffffffffff1681526020019081526020016000206005018281548110610255577f4e487b7100000000000000000000000000000000000000000000000000000000600052603260045260246000fd5b90600052602060002001805461026a9061162e565b80601f01602080910402602001604051908101604052809291908181526020018280546102969061162e565b80156102e35780601f106102b8576101008083540402835291602001916102e3565b820191906000526020600020905b8154815290600101906020018083116102c657829003601f168201915b50505050509050919050565b6000803373ffffffffffffffffffffffffffffffffffffffff1673ffffffffffffffffffffffffffffffffffffffff16815260200190815260200160002060050181908060018154018082558091505060019003906000526020600020016000909190919091509080519060200190610369929190610e8b565b5050565b60006060806060806000806000803373ffffffffffffffffffffffffffffffffffffffff1673ffffffffffffffffffffffffffffffffffffffff16815260200190815260200160002060000160009054906101000a900473ffffffffffffffffffffffffffffffffffffffff166000803373ffffffffffffffffffffffffffffffffffffffff1673ffffffffffffffffffffffffffffffffffffffff1681526020019081526020016000206001016000803373ffffffffffffffffffffffffffffffffffffffff1673ffffffffffffffffffffffffffffffffffffffff1681526020019081526020016000206002016000803373ffffffffffffffffffffffffffffffffffffffff1673ffffffffffffffffffffffffffffffffffffffff1681526020019081526020016000206003016000803373ffffffffffffffffffffffffffffffffffffffff1673ffffffffffffffffffffffffffffffffffffffff1681526020019081526020016000206004016000803373ffffffffffffffffffffffffffffffffffffffff1673ffffffffffffffffffffffffffffffffffffffff168152602001908152602001600020600501805490506000803373ffffffffffffffffffffffffffffffffffffffff1673ffffffffffffffffffffffffffffffffffffffff168152602001908152602001600020600601548580546105719061162e565b80601f016020809104026020016040519081016040528092919081815260200182805461059d9061162e565b80156105ea5780601f106105bf576101008083540402835291602001916105ea565b820191906000526020600020905b8154815290600101906020018083116105cd57829003601f168201915b505050505095508480546105fd9061162e565b80601f01602080910402602001604051908101604052809291908181526020018280546106299061162e565b80156106765780601f1061064b57610100808354040283529160200191610676565b820191906000526020600020905b81548152906001019060200180831161065957829003601f168201915b505050505094508380546106899061162e565b80601f01602080910402602001604051908101604052809291908181526020018280546106b59061162e565b80156107025780601f106106d757610100808354040283529160200191610702565b820191906000526020600020905b8154815290600101906020018083116106e557829003601f168201915b505050505093508280546107159061162e565b80601f01602080910402602001604051908101604052809291908181526020018280546107419061162e565b801561078e5780601f106107635761010080835404028352916020019161078e565b820191906000526020600020905b81548152906001019060200180831161077157829003601f168201915b50505050509250965096509650965096509650965090919293949596565b60016000803373ffffffffffffffffffffffffffffffffffffffff1673ffffffffffffffffffffffffffffffffffffffff16815260200190815260200160002060060160008282546107fe919061147e565b92505081905550600160008273ffffffffffffffffffffffffffffffffffffffff1673ffffffffffffffffffffffffffffffffffffffff168152602001908152602001600020339080600181540180825580915050600190039060005260206000200160009091909190916101000a81548173ffffffffffffffffffffffffffffffffffffffff021916908373ffffffffffffffffffffffffffffffffffffffff16021790555050565b6060600160008373ffffffffffffffffffffffffffffffffffffffff1673ffffffffffffffffffffffffffffffffffffffff16815260200190815260200160002080548060200260200160405190810160405280929190818152602001828054801561096957602002820191906000526020600020905b8160009054906101000a900473ffffffffffffffffffffffffffffffffffffffff1673ffffffffffffffffffffffffffffffffffffffff168152602001906001019080831161091f575b50505050509050919050565b6001602052816000526040600020818154811061099157600080fd5b906000526020600020016000915091509054906101000a900473ffffffffffffffffffffffffffffffffffffffff1681565b60008060003373ffffffffffffffffffffffffffffffffffffffff1673ffffffffffffffffffffffffffffffffffffffff16815260200190815260200160002060050180549050905090565b336000803373ffffffffffffffffffffffffffffffffffffffff1673ffffffffffffffffffffffffffffffffffffffff16815260200190815260200160002060000160006101000a81548173ffffffffffffffffffffffffffffffffffffffff021916908373ffffffffffffffffffffffffffffffffffffffff160217905550836000803373ffffffffffffffffffffffffffffffffffffffff1673ffffffffffffffffffffffffffffffffffffffff1681526020019081526020016000206001019080519060200190610ae4929190610e8b565b50826000803373ffffffffffffffffffffffffffffffffffffffff1673ffffffffffffffffffffffffffffffffffffffff1681526020019081526020016000206002019080519060200190610b3a929190610e8b565b50816000803373ffffffffffffffffffffffffffffffffffffffff1673ffffffffffffffffffffffffffffffffffffffff1681526020019081526020016000206003019080519060200190610b90929190610e8b565b50806000803373ffffffffffffffffffffffffffffffffffffffff1673ffffffffffffffffffffffffffffffffffffffff1681526020019081526020016000206004019080519060200190610be6929190610e8b565b5060008060003373ffffffffffffffffffffffffffffffffffffffff1673ffffffffffffffffffffffffffffffffffffffff1681526020019081526020016000206006018190555060008060003373ffffffffffffffffffffffffffffffffffffffff1673ffffffffffffffffffffffffffffffffffffffff1681526020019081526020016000206007018190555050505050565b3373ffffffffffffffffffffffffffffffffffffffff16600160008473ffffffffffffffffffffffffffffffffffffffff1673ffffffffffffffffffffffffffffffffffffffff1681526020019081526020016000208281548110610d09577f4e487b7100000000000000000000000000000000000000000000000000000000600052603260045260246000fd5b9060005260206000200160009054906101000a900473ffffffffffffffffffffffffffffffffffffffff1673ffffffffffffffffffffffffffffffffffffffff1614610d8a576040517f08c379a0000000000000000000000000000000000000000000000000000000008152600401610d819061138d565b60405180910390fd5b600160008373ffffffffffffffffffffffffffffffffffffffff1673ffffffffffffffffffffffffffffffffffffffff1681526020019081526020016000208181548110610e01577f4e487b7100000000000000000000000000000000000000000000000000000000600052603260045260246000fd5b9060005260206000200160006101000a81549073ffffffffffffffffffffffffffffffffffffffff021916905560016000803373ffffffffffffffffffffffffffffffffffffffff1673ffffffffffffffffffffffffffffffffffffffff1681526020019081526020016000206006016000828254610e809190611512565b925050819055505050565b828054610e979061162e565b90600052602060002090601f016020900481019282610eb95760008555610f00565b82601f10610ed257805160ff1916838001178555610f00565b82800160010185558215610f00579182015b82811115610eff578251825591602001919060010190610ee4565b5b509050610f0d9190610f11565b5090565b5b80821115610f2a576000816000905550600101610f12565b5090565b6000610f41610f3c846113f9565b6113c8565b905082815260208101848484011115610f5957600080fd5b610f648482856115ec565b509392505050565b600081359050610f7b816116fe565b92915050565b600082601f830112610f9257600080fd5b8135610fa2848260208601610f2e565b91505092915050565b600081359050610fba81611715565b92915050565b600060208284031215610fd257600080fd5b6000610fe084828501610f6c565b91505092915050565b60008060408385031215610ffc57600080fd5b600061100a85828601610f6c565b925050602061101b85828601610fab565b9150509250929050565b60006020828403121561103757600080fd5b600082013567ffffffffffffffff81111561105157600080fd5b61105d84828501610f81565b91505092915050565b6000806000806080858703121561107c57600080fd5b600085013567ffffffffffffffff81111561109657600080fd5b6110a287828801610f81565b945050602085013567ffffffffffffffff8111156110bf57600080fd5b6110cb87828801610f81565b935050604085013567ffffffffffffffff8111156110e857600080fd5b6110f487828801610f81565b925050606085013567ffffffffffffffff81111561111157600080fd5b61111d87828801610f81565b91505092959194509250565b60006020828403121561113b57600080fd5b600061114984828501610fab565b91505092915050565b600061115e838361116a565b60208301905092915050565b611173816115a6565b82525050565b611182816115a6565b82525050565b600061119382611439565b61119d818561145c565b93506111a883611429565b8060005b838110156111d95781516111c08882611152565b97506111cb8361144f565b9250506001810190506111ac565b5085935050505092915050565b6111ef816115b8565b82525050565b600061120082611444565b61120a818561146d565b935061121a8185602086016115fb565b611223816116ed565b840191505092915050565b600061123b60318361146d565b91507f596f752063616e206f6e6c79207265766f6b652061636365737320746f20796f60008301527f7572206f776e20646f63756d656e74732e0000000000000000000000000000006020830152604082019050919050565b61129d816115e2565b82525050565b60006020820190506112b86000830184611179565b92915050565b600060e0820190506112d3600083018a611179565b81810360208301526112e581896111f5565b905081810360408301526112f981886111f5565b9050818103606083015261130d81876111f5565b9050818103608083015261132181866111f5565b905061133060a0830185611294565b61133d60c08301846111e6565b98975050505050505050565b600060208201905081810360008301526113638184611188565b905092915050565b6000602082019050818103600083015261138581846111f5565b905092915050565b600060208201905081810360008301526113a68161122e565b9050919050565b60006020820190506113c26000830184611294565b92915050565b6000604051905081810181811067ffffffffffffffff821117156113ef576113ee6116be565b5b8060405250919050565b600067ffffffffffffffff821115611414576114136116be565b5b601f19601f8301169050602081019050919050565b6000819050602082019050919050565b600081519050919050565b600081519050919050565b6000602082019050919050565b600082825260208201905092915050565b600082825260208201905092915050565b6000611489826115b8565b9150611494836115b8565b9250817f7fffffffffffffffffffffffffffffffffffffffffffffffffffffffffffffff038313600083121516156114cf576114ce611660565b5b817f800000000000000000000000000000000000000000000000000000000000000003831260008312161561150757611506611660565b5b828201905092915050565b600061151d826115b8565b9150611528836115b8565b9250827f80000000000000000000000000000000000000000000000000000000000000000182126000841215161561156357611562611660565b5b827f7fffffffffffffffffffffffffffffffffffffffffffffffffffffffffffffff01821360008412161561159b5761159a611660565b5b828203905092915050565b60006115b1826115c2565b9050919050565b6000819050919050565b600073ffffffffffffffffffffffffffffffffffffffff82169050919050565b6000819050919050565b82818337600083830152505050565b60005b838110156116195780820151818401526020810190506115fe565b83811115611628576000848401525b50505050565b6000600282049050600182168061164657607f821691505b6020821081141561165a5761165961168f565b5b50919050565b7f4e487b7100000000000000000000000000000000000000000000000000000000600052601160045260246000fd5b7f4e487b7100000000000000000000000000000000000000000000000000000000600052602260045260246000fd5b7f4e487b7100000000000000000000000000000000000000000000000000000000600052604160045260246000fd5b6000601f19601f8301169050919050565b611707816115a6565b811461171257600080fd5b50565b61171e816115e2565b811461172957600080fd5b5056fea2646970667358221220a245a6636fd5ad23c038cc93c9b14bb6aaa1fe8eb63bec6ecb4271884c32993964736f6c63430008000033",
  "immutableReferences": {},
  "source": "// SPDX-License-Identifier: UNLICENSED\r\npragma solidity >=0.8.0;\r\n\r\ncontract MediStore {\r\n    /*\r\n     * List Of Every User Details.\r\n     * mapping: userAddress -> userDetails\r\n     */\r\n    mapping(address => User) users;\r\n\r\n    /*\r\n     * A user can specify, which doctors are allowed to view their medical records.\r\n     * Access is granted, when the user adds his address to a doctors list of patients.\r\n     * As soon as the user address is removed from the list, access for the doctor is revoked.\r\n     *\r\n     * mapping: doctorsAddress -> patientsAddresses\r\n     */\r\n    mapping(address => address[]) public doctorsPermissions;\r\n\r\n    /*\r\n     * Patient & Doctor Structure\r\n     */\r\n    struct User {\r\n        address id;\r\n        string name;\r\n        string role;\r\n        string dob;\r\n        string userAddress;\r\n        string[] data;\r\n        int256 totalDoctors;\r\n        int256 totalDocuments;\r\n    }\r\n\r\n    /*\r\n     * Create a new user\r\n     */\r\n    function newUser(\r\n        string memory _name,\r\n        string memory _role,\r\n        string memory _dob,\r\n        string memory _userAddress\r\n    ) public {\r\n        users[msg.sender].id = msg.sender;\r\n        users[msg.sender].name = _name;\r\n        users[msg.sender].role = _role;\r\n        users[msg.sender].dob = _dob;\r\n        users[msg.sender].userAddress = _userAddress;\r\n        users[msg.sender].totalDoctors = 0;\r\n        users[msg.sender].totalDocuments = 0;\r\n    }\r\n\r\n    /*\r\n     * Add Imag\r\n     */\r\n    function addImage(string memory _data) public {\r\n        users[msg.sender].data.push(_data);\r\n    }\r\n\r\n    /*\r\n     * Solidity can't return string arrays,\r\n     * So we'll have to give the index.\r\n     */\r\n    function getUserData()\r\n        public\r\n        view\r\n        returns (\r\n            address id,\r\n            string memory name,\r\n            string memory role,\r\n            string memory dob,\r\n            string memory userAddress,\r\n            uint256 dataSize,\r\n            int256 totalDoctors\r\n        )\r\n    {\r\n        return (\r\n            users[msg.sender].id,\r\n            users[msg.sender].name,\r\n            users[msg.sender].role,\r\n            users[msg.sender].dob,\r\n            users[msg.sender].userAddress,\r\n            users[msg.sender].data.length,\r\n            users[msg.sender].totalDoctors\r\n        );\r\n    }\r\n\r\n    /*\r\n     * Returns User Data Length\r\n     */\r\n    function getDataSize() public view returns (uint256) {\r\n        return users[msg.sender].data.length;\r\n    }\r\n\r\n    /*\r\n     * Returns User Data Hash of Particular Index\r\n     */\r\n    function getData(uint256 _index) public view returns (string memory) {\r\n        return users[msg.sender].data[_index];\r\n    }\r\n\r\n    /*\r\n     * Allow doctor to view all your documents.\r\n     */\r\n    function giveAccessToDoctor(address _doctor) public {\r\n        users[msg.sender].totalDoctors += 1;\r\n        doctorsPermissions[_doctor].push(msg.sender);\r\n    }\r\n\r\n    /*\r\n     * Revoke doctors access from your documents.\r\n     */\r\n    function revokeAccessFromDoctor(address doctor, uint256 index) public {\r\n        require(\r\n            doctorsPermissions[doctor][index] == msg.sender,\r\n            \"You can only revoke access to your own documents.\"\r\n        );\r\n        delete doctorsPermissions[doctor][index];\r\n        users[msg.sender].totalDoctors -= 1;\r\n    }\r\n\r\n    /*\r\n     * Get All User of Particular Doctor\r\n     */\r\n    function getUsersOfParticularDoctor(address _doctor)\r\n        public\r\n        view\r\n        returns (address[] memory)\r\n    {\r\n        return doctorsPermissions[_doctor];\r\n    }\r\n}\r\n",
  "sourcePath": "E:/Workspace/Project/MediStore/frontend/src/contracts/MediStore.sol",
  "compiler": {
    "name": "solc",
    "version": "0.8.0+commit.c7dfd78e.Emscripten.clang"
  },
  "schemaVersion": "3.2.3",
  "updatedAt": "2022-02-25T07:19:51.980Z",
  "networkType": "ethereum",
  "devdoc": {
    "kind": "dev",
    "methods": {},
    "version": 1
  },
  "userdoc": {
    "kind": "user",
    "methods": {},
    "version": 1
  }
}