{
  "contractName": "MediStore",
  "abi": [
    {
      "constant": true,
      "inputs": [
        {
          "name": "",
          "type": "address"
        },
        {
          "name": "",
          "type": "uint256"
        }
      ],
      "name": "doctorsPermissions",
      "outputs": [
        {
          "name": "",
          "type": "address"
        }
      ],
      "payable": false,
      "stateMutability": "view",
      "type": "function"
    },
    {
      "constant": false,
      "inputs": [
        {
          "name": "_name",
          "type": "string"
        },
        {
          "name": "_role",
          "type": "string"
        },
        {
          "name": "_dob",
          "type": "string"
        },
        {
          "name": "_userAddress",
          "type": "string"
        }
      ],
      "name": "newUser",
      "outputs": [],
      "payable": false,
      "stateMutability": "nonpayable",
      "type": "function"
    },
    {
      "constant": true,
      "inputs": [],
      "name": "getUserAddress",
      "outputs": [
        {
          "name": "",
          "type": "address"
        }
      ],
      "payable": false,
      "stateMutability": "view",
      "type": "function"
    },
    {
      "constant": false,
      "inputs": [
        {
          "name": "_data",
          "type": "string"
        }
      ],
      "name": "addImage",
      "outputs": [],
      "payable": false,
      "stateMutability": "nonpayable",
      "type": "function"
    },
    {
      "constant": true,
      "inputs": [],
      "name": "getUserData",
      "outputs": [
        {
          "name": "id",
          "type": "address"
        },
        {
          "name": "name",
          "type": "string"
        },
        {
          "name": "role",
          "type": "string"
        },
        {
          "name": "dob",
          "type": "string"
        },
        {
          "name": "userAddress",
          "type": "string"
        },
        {
          "name": "dataSize",
          "type": "uint256"
        }
      ],
      "payable": false,
      "stateMutability": "view",
      "type": "function"
    },
    {
      "constant": true,
      "inputs": [],
      "name": "getDataSize",
      "outputs": [
        {
          "name": "",
          "type": "uint256"
        }
      ],
      "payable": false,
      "stateMutability": "view",
      "type": "function"
    },
    {
      "constant": true,
      "inputs": [
        {
          "name": "_index",
          "type": "uint256"
        }
      ],
      "name": "getData",
      "outputs": [
        {
          "name": "",
          "type": "string"
        }
      ],
      "payable": false,
      "stateMutability": "view",
      "type": "function"
    },
    {
      "constant": false,
      "inputs": [
        {
          "name": "doctor",
          "type": "address"
        }
      ],
      "name": "giveAccessToDoctor",
      "outputs": [],
      "payable": false,
      "stateMutability": "nonpayable",
      "type": "function"
    },
    {
      "constant": false,
      "inputs": [
        {
          "name": "doctor",
          "type": "address"
        },
        {
          "name": "index",
          "type": "uint256"
        }
      ],
      "name": "revokeAccessFromDoctor",
      "outputs": [],
      "payable": false,
      "stateMutability": "nonpayable",
      "type": "function"
    },
    {
      "constant": true,
      "inputs": [
        {
          "name": "doctor",
          "type": "address"
        }
      ],
      "name": "getDoctorsPermissions",
      "outputs": [
        {
          "name": "",
          "type": "address[]"
        }
      ],
      "payable": false,
      "stateMutability": "view",
      "type": "function"
    }
  ],
  "bytecode": "0x608060405234801561001057600080fd5b50611562806100206000396000f3fe6080604052600436106100a4576000357c0100000000000000000000000000000000000000000000000000000000900463ffffffff1680630178fe3f146100a957806306be09d81461015d578063166f17791461020357806322e8c87d146102cb57806328b2b968146104d957806376e695ad1461052a5780637d036b27146105c5578063c81bcdeb146105f0578063ebc3eee81461087d578063fdd19857146108d4575b600080fd5b3480156100b557600080fd5b506100e2600480360360208110156100cc57600080fd5b810190808035906020019092919050505061092f565b6040518080602001828103825283818151815260200191508051906020019080838360005b83811015610122578082015181840152602081019050610107565b50505050905090810190601f16801561014f5780820380516001836020036101000a031916815260200191505b509250505060405180910390f35b34801561016957600080fd5b506101ac6004803603602081101561018057600080fd5b81019080803573ffffffffffffffffffffffffffffffffffffffff169060200190929190505050610a29565b6040518080602001828103825283818151815260200191508051906020019060200280838360005b838110156101ef5780820151818401526020810190506101d4565b505050509050019250505060405180910390f35b34801561020f57600080fd5b506102c96004803603602081101561022657600080fd5b810190808035906020019064010000000081111561024357600080fd5b82018360208201111561025557600080fd5b8035906020019184600183028401116401000000008311171561027757600080fd5b91908080601f016020809104026020016040519081016040528093929190818152602001838380828437600081840152601f19601f820116905080830192505050505050509192919290505050610af6565b005b3480156102d757600080fd5b506102e0610b77565b604051808773ffffffffffffffffffffffffffffffffffffffff1673ffffffffffffffffffffffffffffffffffffffff1681526020018060200180602001806020018060200186815260200185810385528a818151815260200191508051906020019080838360005b83811015610364578082015181840152602081019050610349565b50505050905090810190601f1680156103915780820380516001836020036101000a031916815260200191505b50858103845289818151815260200191508051906020019080838360005b838110156103ca5780820151818401526020810190506103af565b50505050905090810190601f1680156103f75780820380516001836020036101000a031916815260200191505b50858103835288818151815260200191508051906020019080838360005b83811015610430578082015181840152602081019050610415565b50505050905090810190601f16801561045d5780820380516001836020036101000a031916815260200191505b50858103825287818151815260200191508051906020019080838360005b8381101561049657808201518184015260208101905061047b565b50505050905090810190601f1680156104c35780820380516001836020036101000a031916815260200191505b509a505050505050505050505060405180910390f35b3480156104e557600080fd5b50610528600480360360208110156104fc57600080fd5b81019080803573ffffffffffffffffffffffffffffffffffffffff169060200190929190505050610fb0565b005b34801561053657600080fd5b506105836004803603604081101561054d57600080fd5b81019080803573ffffffffffffffffffffffffffffffffffffffff16906020019092919080359060200190929190505050611056565b604051808273ffffffffffffffffffffffffffffffffffffffff1673ffffffffffffffffffffffffffffffffffffffff16815260200191505060405180910390f35b3480156105d157600080fd5b506105da6110a3565b6040518082815260200191505060405180910390f35b3480156105fc57600080fd5b5061087b6004803603608081101561061357600080fd5b810190808035906020019064010000000081111561063057600080fd5b82018360208201111561064257600080fd5b8035906020019184600183028401116401000000008311171561066457600080fd5b91908080601f016020809104026020016040519081016040528093929190818152602001838380828437600081840152601f19601f820116905080830192505050505050509192919290803590602001906401000000008111156106c757600080fd5b8201836020820111156106d957600080fd5b803590602001918460018302840111640100000000831117156106fb57600080fd5b91908080601f016020809104026020016040519081016040528093929190818152602001838380828437600081840152601f19601f8201169050808301925050505050505091929192908035906020019064010000000081111561075e57600080fd5b82018360208201111561077057600080fd5b8035906020019184600183028401116401000000008311171561079257600080fd5b91908080601f016020809104026020016040519081016040528093929190818152602001838380828437600081840152601f19601f820116905080830192505050505050509192919290803590602001906401000000008111156107f557600080fd5b82018360208201111561080757600080fd5b8035906020019184600183028401116401000000008311171561082957600080fd5b91908080601f016020809104026020016040519081016040528093929190818152602001838380828437600081840152601f19601f8201169050808301925050505050505091929192905050506110ef565b005b34801561088957600080fd5b506108926112cd565b604051808273ffffffffffffffffffffffffffffffffffffffff1673ffffffffffffffffffffffffffffffffffffffff16815260200191505060405180910390f35b3480156108e057600080fd5b5061092d600480360360408110156108f757600080fd5b81019080803573ffffffffffffffffffffffffffffffffffffffff169060200190929190803590602001909291905050506112d5565b005b60606000803373ffffffffffffffffffffffffffffffffffffffff1673ffffffffffffffffffffffffffffffffffffffff1681526020019081526020016000206005018281548110151561097f57fe5b906000526020600020018054600181600116156101000203166002900480601f016020809104026020016040519081016040528092919081815260200182805460018160011615610100020316600290048015610a1d5780601f106109f257610100808354040283529160200191610a1d565b820191906000526020600020905b815481529060010190602001808311610a0057829003601f168201915b50505050509050919050565b6060600160008373ffffffffffffffffffffffffffffffffffffffff1673ffffffffffffffffffffffffffffffffffffffff168152602001908152602001600020805480602002602001604051908101604052809291908181526020018280548015610aea57602002820191906000526020600020905b8160009054906101000a900473ffffffffffffffffffffffffffffffffffffffff1673ffffffffffffffffffffffffffffffffffffffff1681526020019060010190808311610aa0575b50505050509050919050565b6000803373ffffffffffffffffffffffffffffffffffffffff1673ffffffffffffffffffffffffffffffffffffffff168152602001908152602001600020600501819080600181540180825580915050906001820390600052602060002001600090919290919091509080519060200190610b72929190611491565b505050565b600060608060608060008060003373ffffffffffffffffffffffffffffffffffffffff1673ffffffffffffffffffffffffffffffffffffffff16815260200190815260200160002060000160009054906101000a900473ffffffffffffffffffffffffffffffffffffffff166000803373ffffffffffffffffffffffffffffffffffffffff1673ffffffffffffffffffffffffffffffffffffffff1681526020019081526020016000206001016000803373ffffffffffffffffffffffffffffffffffffffff1673ffffffffffffffffffffffffffffffffffffffff1681526020019081526020016000206002016000803373ffffffffffffffffffffffffffffffffffffffff1673ffffffffffffffffffffffffffffffffffffffff1681526020019081526020016000206003016000803373ffffffffffffffffffffffffffffffffffffffff1673ffffffffffffffffffffffffffffffffffffffff1681526020019081526020016000206004016000803373ffffffffffffffffffffffffffffffffffffffff1673ffffffffffffffffffffffffffffffffffffffff16815260200190815260200160002060050180549050848054600181600116156101000203166002900480601f016020809104026020016040519081016040528092919081815260200182805460018160011615610100020316600290048015610dc15780601f10610d9657610100808354040283529160200191610dc1565b820191906000526020600020905b815481529060010190602001808311610da457829003601f168201915b50505050509450838054600181600116156101000203166002900480601f016020809104026020016040519081016040528092919081815260200182805460018160011615610100020316600290048015610e5d5780601f10610e3257610100808354040283529160200191610e5d565b820191906000526020600020905b815481529060010190602001808311610e4057829003601f168201915b50505050509350828054600181600116156101000203166002900480601f016020809104026020016040519081016040528092919081815260200182805460018160011615610100020316600290048015610ef95780601f10610ece57610100808354040283529160200191610ef9565b820191906000526020600020905b815481529060010190602001808311610edc57829003601f168201915b50505050509250818054600181600116156101000203166002900480601f016020809104026020016040519081016040528092919081815260200182805460018160011615610100020316600290048015610f955780601f10610f6a57610100808354040283529160200191610f95565b820191906000526020600020905b815481529060010190602001808311610f7857829003601f168201915b50505050509150955095509550955095509550909192939495565b600160008273ffffffffffffffffffffffffffffffffffffffff1673ffffffffffffffffffffffffffffffffffffffff1681526020019081526020016000203390806001815401808255809150509060018203906000526020600020016000909192909190916101000a81548173ffffffffffffffffffffffffffffffffffffffff021916908373ffffffffffffffffffffffffffffffffffffffff1602179055505050565b60016020528160005260406000208181548110151561107157fe5b906000526020600020016000915091509054906101000a900473ffffffffffffffffffffffffffffffffffffffff1681565b60008060003373ffffffffffffffffffffffffffffffffffffffff1673ffffffffffffffffffffffffffffffffffffffff16815260200190815260200160002060050180549050905090565b336000803373ffffffffffffffffffffffffffffffffffffffff1673ffffffffffffffffffffffffffffffffffffffff16815260200190815260200160002060000160006101000a81548173ffffffffffffffffffffffffffffffffffffffff021916908373ffffffffffffffffffffffffffffffffffffffff160217905550836000803373ffffffffffffffffffffffffffffffffffffffff1673ffffffffffffffffffffffffffffffffffffffff16815260200190815260200160002060010190805190602001906111c4929190611491565b50826000803373ffffffffffffffffffffffffffffffffffffffff1673ffffffffffffffffffffffffffffffffffffffff168152602001908152602001600020600201908051906020019061121a929190611491565b50816000803373ffffffffffffffffffffffffffffffffffffffff1673ffffffffffffffffffffffffffffffffffffffff1681526020019081526020016000206003019080519060200190611270929190611491565b50806000803373ffffffffffffffffffffffffffffffffffffffff1673ffffffffffffffffffffffffffffffffffffffff16815260200190815260200160002060040190805190602001906112c6929190611491565b5050505050565b600033905090565b3373ffffffffffffffffffffffffffffffffffffffff16600160008473ffffffffffffffffffffffffffffffffffffffff1673ffffffffffffffffffffffffffffffffffffffff1681526020019081526020016000208281548110151561133857fe5b9060005260206000200160009054906101000a900473ffffffffffffffffffffffffffffffffffffffff1673ffffffffffffffffffffffffffffffffffffffff16141515611414576040517f08c379a00000000000000000000000000000000000000000000000000000000081526004018080602001828103825260318152602001807f596f752063616e206f6e6c79207265766f6b652061636365737320746f20796f81526020017f7572206f776e20646f63756d656e74732e00000000000000000000000000000081525060400191505060405180910390fd5b600160008373ffffffffffffffffffffffffffffffffffffffff1673ffffffffffffffffffffffffffffffffffffffff1681526020019081526020016000208181548110151561146057fe5b9060005260206000200160006101000a81549073ffffffffffffffffffffffffffffffffffffffff02191690555050565b828054600181600116156101000203166002900490600052602060002090601f016020900481019282601f106114d257805160ff1916838001178555611500565b82800160010185558215611500579182015b828111156114ff5782518255916020019190600101906114e4565b5b50905061150d9190611511565b5090565b61153391905b8082111561152f576000816000905550600101611517565b5090565b9056fea165627a7a723058208fc9daab45aae10e376d08cecc5420cd7dc866badd180ecf3744c7c5e334aca80029",
  "source": "pragma solidity >=0.5.0;\r\n\r\ncontract MediStore {\r\n    /**\r\n     * List Of Every User Details.\r\n     * mapping: userAddress -> userDetails\r\n     */\r\n    mapping(address => User) users;\r\n\r\n    /**\r\n     * A user can specify, which doctors are allowed to view their medical records.\r\n     * Access is granted, when the user adds his address to a doctors list of patients.\r\n     * As soon as the user address is removed from the list, access for the doctor is revoked.\r\n     *\r\n     * mapping: doctorsAddress -> patientsAddresses\r\n     */\r\n    mapping(address => address[]) public doctorsPermissions;\r\n\r\n    /**\r\n     * Patient & Doctor Structure\r\n     */\r\n    struct User {\r\n        address id;\r\n        string name;\r\n        string role;\r\n        string dob;\r\n        string userAddress;\r\n        string[] data;\r\n    }\r\n\r\n    /**\r\n     * Create a new user\r\n     */\r\n    function newUser(\r\n        string memory _name,\r\n        string memory _role,\r\n        string memory _dob,\r\n        string memory _userAddress\r\n    ) public {\r\n        users[msg.sender].id = msg.sender;\r\n        users[msg.sender].name = _name;\r\n        users[msg.sender].role = _role;\r\n        users[msg.sender].dob = _dob;\r\n        users[msg.sender].userAddress = _userAddress;\r\n    }\r\n\r\n    /**\r\n     * Get User Address\r\n     */\r\n    function getUserAddress() public view returns (address) {\r\n        return msg.sender;\r\n    }\r\n\r\n    /**\r\n     * Add Imag\r\n     */\r\n    function addImage(string memory _data) public {\r\n        users[msg.sender].data.push(_data);\r\n    }\r\n\r\n    /*\r\n     * Solidity can't return string arrays,\r\n     * So we'll have to give the index.\r\n     */\r\n    function getUserData()\r\n        public\r\n        view\r\n        returns (\r\n            address id,\r\n            string memory name,\r\n            string memory role,\r\n            string memory dob,\r\n            string memory userAddress,\r\n            uint256 dataSize\r\n        )\r\n    {\r\n        return (\r\n            users[msg.sender].id,\r\n            users[msg.sender].name,\r\n            users[msg.sender].role,\r\n            users[msg.sender].dob,\r\n            users[msg.sender].userAddress,\r\n            users[msg.sender].data.length\r\n        );\r\n    }\r\n\r\n    /**\r\n     * Returns User Data Length\r\n     */\r\n    function getDataSize() public view returns (uint256) {\r\n        return users[msg.sender].data.length;\r\n    }\r\n\r\n    /**\r\n     * Returns User Data Hash of Particular Index\r\n     */\r\n    function getData(uint256 _index) public view returns (string memory) {\r\n        return users[msg.sender].data[_index];\r\n    }\r\n\r\n    /**\r\n     * Allow a doctor to view all your documents.\r\n     */\r\n    function giveAccessToDoctor(address doctor) public {\r\n        doctorsPermissions[doctor].push(msg.sender);\r\n    }\r\n\r\n    /**\r\n     * Revoke a doctors access to your documents.\r\n     */\r\n    function revokeAccessFromDoctor(address doctor, uint256 index) public {\r\n        require(\r\n            doctorsPermissions[doctor][index] == msg.sender,\r\n            \"You can only revoke access to your own documents.\"\r\n        );\r\n        delete doctorsPermissions[doctor][index];\r\n    }\r\n\r\n    /**\r\n     * Returns all the patients addresses that gave the doctor access.\r\n     */\r\n    function getDoctorsPermissions(address doctor)\r\n        public\r\n        view\r\n        returns (address[] memory)\r\n    {\r\n        return doctorsPermissions[doctor];\r\n    }\r\n}\r\n",
  "sourcePath": "E:/Workspace/Project/MediStore/frontend/src/contracts/MediStore.sol",
  "compiler": {
    "name": "solc",
    "version": "0.5.0+commit.1d4f565a.Emscripten.clang"
  },
  "schemaVersion": "3.2.3",
  "updatedAt": "2022-02-05T06:27:45.248Z",
  "networkType": "ethereum",
  "devdoc": {
    "methods": {}
  },
  "userdoc": {
    "methods": {
      "addImage(string)": {
        "notice": "Add Imag\r"
      },
      "getData(uint256)": {
        "notice": "Returns User Data Hash of Particular Index\r"
      },
      "getDataSize()": {
        "notice": "Returns User Data Length\r"
      },
      "getDoctorsPermissions(address)": {
        "notice": "Returns all the patients addresses that gave the doctor access.\r"
      },
      "getUserAddress()": {
        "notice": "Get User Address\r"
      },
      "giveAccessToDoctor(address)": {
        "notice": "Allow a doctor to view all your documents.\r"
      },
      "newUser(string,string,string,string)": {
        "notice": "Create a new user\r"
      },
      "revokeAccessFromDoctor(address,uint256)": {
        "notice": "Revoke a doctors access to your documents.\r"
      }
    }
  }
}