{
  "contractName": "MediStore",
  "abi": [
    {
      "inputs": [
        {
          "internalType": "address",
          "name": "",
          "type": "address"
        },
        {
          "internalType": "uint256",
          "name": "",
          "type": "uint256"
        }
      ],
      "name": "doctorsPermissions",
      "outputs": [
        {
          "internalType": "address",
          "name": "",
          "type": "address"
        }
      ],
      "stateMutability": "view",
      "type": "function",
      "constant": true
    },
    {
      "inputs": [
        {
          "internalType": "string",
          "name": "_name",
          "type": "string"
        },
        {
          "internalType": "string",
          "name": "_role",
          "type": "string"
        },
        {
          "internalType": "string",
          "name": "_dob",
          "type": "string"
        },
        {
          "internalType": "string",
          "name": "_userAddress",
          "type": "string"
        }
      ],
      "name": "newUser",
      "outputs": [],
      "stateMutability": "nonpayable",
      "type": "function"
    },
    {
      "inputs": [
        {
          "internalType": "address",
          "name": "_userAddress",
          "type": "address"
        }
      ],
      "name": "getUserData",
      "outputs": [
        {
          "internalType": "address",
          "name": "id",
          "type": "address"
        },
        {
          "internalType": "string",
          "name": "name",
          "type": "string"
        },
        {
          "internalType": "string",
          "name": "role",
          "type": "string"
        },
        {
          "internalType": "string",
          "name": "dob",
          "type": "string"
        },
        {
          "internalType": "string",
          "name": "userAddress",
          "type": "string"
        },
        {
          "internalType": "int256",
          "name": "totalDoctors",
          "type": "int256"
        },
        {
          "internalType": "int256",
          "name": "totalDocuments",
          "type": "int256"
        }
      ],
      "stateMutability": "view",
      "type": "function",
      "constant": true
    },
    {
      "inputs": [],
      "name": "getPatientDocuments",
      "outputs": [
        {
          "internalType": "string[]",
          "name": "",
          "type": "string[]"
        }
      ],
      "stateMutability": "view",
      "type": "function",
      "constant": true
    },
    {
      "inputs": [
        {
          "internalType": "string",
          "name": "_data",
          "type": "string"
        }
      ],
      "name": "addPatientDocument",
      "outputs": [],
      "stateMutability": "nonpayable",
      "type": "function"
    },
    {
      "inputs": [
        {
          "internalType": "uint256",
          "name": "_index",
          "type": "uint256"
        }
      ],
      "name": "removePatientDocument",
      "outputs": [],
      "stateMutability": "nonpayable",
      "type": "function"
    },
    {
      "inputs": [
        {
          "internalType": "address",
          "name": "_doctor",
          "type": "address"
        }
      ],
      "name": "giveAccessToDoctor",
      "outputs": [],
      "stateMutability": "nonpayable",
      "type": "function"
    },
    {
      "inputs": [
        {
          "internalType": "address",
          "name": "doctor",
          "type": "address"
        },
        {
          "internalType": "uint256",
          "name": "index",
          "type": "uint256"
        }
      ],
      "name": "revokeAccessFromDoctor",
      "outputs": [],
      "stateMutability": "nonpayable",
      "type": "function"
    },
    {
      "inputs": [
        {
          "internalType": "address",
          "name": "_doctor",
          "type": "address"
        }
      ],
      "name": "getUsersOfParticularDoctor",
      "outputs": [
        {
          "internalType": "address[]",
          "name": "",
          "type": "address[]"
        }
      ],
      "stateMutability": "view",
      "type": "function",
      "constant": true
    }
  ],
  "bytecode": "0x608060405234801561001057600080fd5b5061197c806100206000396000f3fe608060405234801561001057600080fd5b50600436106100935760003560e01c8063bced739b11610066578063bced739b14610130578063c81bcdeb1461014e578063e01f2aea1461016a578063fdd1985714610186578063ffc9896b146101a257610093565b806328b2b968146100985780635b2f2a08146100b45780637049579c146100d057806376e695ad14610100575b600080fd5b6100b260048036038101906100ad91906110f8565b6101d8565b005b6100ce60048036038101906100c9919061115d565b6102d4565b005b6100ea60048036038101906100e591906110f8565b6103ab565b6040516100f79190611534565b60405180910390f35b61011a60048036038101906101159190611121565b610478565b604051610127919061148e565b60405180910390f35b6101386104c6565b6040516101459190611556565b60405180910390f35b6101686004803603810190610163919061119e565b6105de565b005b610184600480360381019061017f9190611261565b61084a565b005b6101a0600480360381019061019b9190611121565b610935565b005b6101bc60048036038101906101b791906110f8565b610b45565b6040516101cf97969594939291906114a9565b60405180910390f35b60016000803373ffffffffffffffffffffffffffffffffffffffff1673ffffffffffffffffffffffffffffffffffffffff168152602001908152602001600020600601600082825461022a9190611698565b92505081905550600160008273ffffffffffffffffffffffffffffffffffffffff1673ffffffffffffffffffffffffffffffffffffffff168152602001908152602001600020339080600181540180825580915050600190039060005260206000200160009091909190916101000a81548173ffffffffffffffffffffffffffffffffffffffff021916908373ffffffffffffffffffffffffffffffffffffffff16021790555050565b6000803373ffffffffffffffffffffffffffffffffffffffff1673ffffffffffffffffffffffffffffffffffffffff1681526020019081526020016000206005018190806001815401808255809150506001900390600052602060002001600090919091909150908051906020019061034e929190610f83565b5060016000803373ffffffffffffffffffffffffffffffffffffffff1673ffffffffffffffffffffffffffffffffffffffff16815260200190815260200160002060070160008282546103a19190611698565b9250508190555050565b6060600160008373ffffffffffffffffffffffffffffffffffffffff1673ffffffffffffffffffffffffffffffffffffffff16815260200190815260200160002080548060200260200160405190810160405280929190818152602001828054801561046c57602002820191906000526020600020905b8160009054906101000a900473ffffffffffffffffffffffffffffffffffffffff1673ffffffffffffffffffffffffffffffffffffffff1681526020019060010190808311610422575b50505050509050919050565b6001602052816000526040600020818154811061049457600080fd5b906000526020600020016000915091509054906101000a900473ffffffffffffffffffffffffffffffffffffffff1681565b60606000803373ffffffffffffffffffffffffffffffffffffffff1673ffffffffffffffffffffffffffffffffffffffff168152602001908152602001600020600501805480602002602001604051908101604052809291908181526020016000905b828210156105d557838290600052602060002001805461054890611848565b80601f016020809104026020016040519081016040528092919081815260200182805461057490611848565b80156105c15780601f10610596576101008083540402835291602001916105c1565b820191906000526020600020905b8154815290600101906020018083116105a457829003601f168201915b505050505081526020019060010190610529565b50505050905090565b336000803373ffffffffffffffffffffffffffffffffffffffff1673ffffffffffffffffffffffffffffffffffffffff16815260200190815260200160002060000160006101000a81548173ffffffffffffffffffffffffffffffffffffffff021916908373ffffffffffffffffffffffffffffffffffffffff160217905550836000803373ffffffffffffffffffffffffffffffffffffffff1673ffffffffffffffffffffffffffffffffffffffff16815260200190815260200160002060010190805190602001906106b3929190610f83565b50826000803373ffffffffffffffffffffffffffffffffffffffff1673ffffffffffffffffffffffffffffffffffffffff1681526020019081526020016000206002019080519060200190610709929190610f83565b50816000803373ffffffffffffffffffffffffffffffffffffffff1673ffffffffffffffffffffffffffffffffffffffff168152602001908152602001600020600301908051906020019061075f929190610f83565b50806000803373ffffffffffffffffffffffffffffffffffffffff1673ffffffffffffffffffffffffffffffffffffffff16815260200190815260200160002060040190805190602001906107b5929190610f83565b5060008060003373ffffffffffffffffffffffffffffffffffffffff1673ffffffffffffffffffffffffffffffffffffffff1681526020019081526020016000206006018190555060008060003373ffffffffffffffffffffffffffffffffffffffff1673ffffffffffffffffffffffffffffffffffffffff1681526020019081526020016000206007018190555050505050565b6000803373ffffffffffffffffffffffffffffffffffffffff1673ffffffffffffffffffffffffffffffffffffffff16815260200190815260200160002060050181815481106108c3577f4e487b7100000000000000000000000000000000000000000000000000000000600052603260045260246000fd5b9060005260206000200160006108d99190611009565b60016000803373ffffffffffffffffffffffffffffffffffffffff1673ffffffffffffffffffffffffffffffffffffffff168152602001908152602001600020600701600082825461092b919061172c565b9250508190555050565b3373ffffffffffffffffffffffffffffffffffffffff16600160008473ffffffffffffffffffffffffffffffffffffffff1673ffffffffffffffffffffffffffffffffffffffff16815260200190815260200160002082815481106109c3577f4e487b7100000000000000000000000000000000000000000000000000000000600052603260045260246000fd5b9060005260206000200160009054906101000a900473ffffffffffffffffffffffffffffffffffffffff1673ffffffffffffffffffffffffffffffffffffffff1614610a44576040517f08c379a0000000000000000000000000000000000000000000000000000000008152600401610a3b90611578565b60405180910390fd5b600160008373ffffffffffffffffffffffffffffffffffffffff1673ffffffffffffffffffffffffffffffffffffffff1681526020019081526020016000208181548110610abb577f4e487b7100000000000000000000000000000000000000000000000000000000600052603260045260246000fd5b9060005260206000200160006101000a81549073ffffffffffffffffffffffffffffffffffffffff021916905560016000803373ffffffffffffffffffffffffffffffffffffffff1673ffffffffffffffffffffffffffffffffffffffff1681526020019081526020016000206006016000828254610b3a919061172c565b925050819055505050565b60006060806060806000806000808973ffffffffffffffffffffffffffffffffffffffff1673ffffffffffffffffffffffffffffffffffffffff16815260200190815260200160002060000160009054906101000a900473ffffffffffffffffffffffffffffffffffffffff166000808a73ffffffffffffffffffffffffffffffffffffffff1673ffffffffffffffffffffffffffffffffffffffff1681526020019081526020016000206001016000808b73ffffffffffffffffffffffffffffffffffffffff1673ffffffffffffffffffffffffffffffffffffffff1681526020019081526020016000206002016000808c73ffffffffffffffffffffffffffffffffffffffff1673ffffffffffffffffffffffffffffffffffffffff1681526020019081526020016000206003016000808d73ffffffffffffffffffffffffffffffffffffffff1673ffffffffffffffffffffffffffffffffffffffff1681526020019081526020016000206004016000808e73ffffffffffffffffffffffffffffffffffffffff1673ffffffffffffffffffffffffffffffffffffffff168152602001908152602001600020600601546000808f73ffffffffffffffffffffffffffffffffffffffff1673ffffffffffffffffffffffffffffffffffffffff16815260200190815260200160002060070154858054610d4690611848565b80601f0160208091040260200160405190810160405280929190818152602001828054610d7290611848565b8015610dbf5780601f10610d9457610100808354040283529160200191610dbf565b820191906000526020600020905b815481529060010190602001808311610da257829003601f168201915b50505050509550848054610dd290611848565b80601f0160208091040260200160405190810160405280929190818152602001828054610dfe90611848565b8015610e4b5780601f10610e2057610100808354040283529160200191610e4b565b820191906000526020600020905b815481529060010190602001808311610e2e57829003601f168201915b50505050509450838054610e5e90611848565b80601f0160208091040260200160405190810160405280929190818152602001828054610e8a90611848565b8015610ed75780601f10610eac57610100808354040283529160200191610ed7565b820191906000526020600020905b815481529060010190602001808311610eba57829003601f168201915b50505050509350828054610eea90611848565b80601f0160208091040260200160405190810160405280929190818152602001828054610f1690611848565b8015610f635780601f10610f3857610100808354040283529160200191610f63565b820191906000526020600020905b815481529060010190602001808311610f4657829003601f168201915b505050505092509650965096509650965096509650919395979092949650565b828054610f8f90611848565b90600052602060002090601f016020900481019282610fb15760008555610ff8565b82601f10610fca57805160ff1916838001178555610ff8565b82800160010185558215610ff8579182015b82811115610ff7578251825591602001919060010190610fdc565b5b5090506110059190611049565b5090565b50805461101590611848565b6000825580601f106110275750611046565b601f0160209004906000526020600020908101906110459190611049565b5b50565b5b8082111561106257600081600090555060010161104a565b5090565b6000611079611074846115c9565b611598565b90508281526020810184848401111561109157600080fd5b61109c848285611806565b509392505050565b6000813590506110b381611918565b92915050565b600082601f8301126110ca57600080fd5b81356110da848260208601611066565b91505092915050565b6000813590506110f28161192f565b92915050565b60006020828403121561110a57600080fd5b6000611118848285016110a4565b91505092915050565b6000806040838503121561113457600080fd5b6000611142858286016110a4565b9250506020611153858286016110e3565b9150509250929050565b60006020828403121561116f57600080fd5b600082013567ffffffffffffffff81111561118957600080fd5b611195848285016110b9565b91505092915050565b600080600080608085870312156111b457600080fd5b600085013567ffffffffffffffff8111156111ce57600080fd5b6111da878288016110b9565b945050602085013567ffffffffffffffff8111156111f757600080fd5b611203878288016110b9565b935050604085013567ffffffffffffffff81111561122057600080fd5b61122c878288016110b9565b925050606085013567ffffffffffffffff81111561124957600080fd5b611255878288016110b9565b91505092959194509250565b60006020828403121561127357600080fd5b6000611281848285016110e3565b91505092915050565b600061129683836112b6565b60208301905092915050565b60006112ae83836113b6565b905092915050565b6112bf816117c0565b82525050565b6112ce816117c0565b82525050565b60006112df82611619565b6112e98185611654565b93506112f4836115f9565b8060005b8381101561132557815161130c888261128a565b97506113178361163a565b9250506001810190506112f8565b5085935050505092915050565b600061133d82611624565b6113478185611665565b93508360208202850161135985611609565b8060005b85811015611395578484038952815161137685826112a2565b945061138183611647565b925060208a0199505060018101905061135d565b50829750879550505050505092915050565b6113b0816117d2565b82525050565b60006113c18261162f565b6113cb8185611676565b93506113db818560208601611815565b6113e481611907565b840191505092915050565b60006113fa8261162f565b6114048185611687565b9350611414818560208601611815565b61141d81611907565b840191505092915050565b6000611435603183611687565b91507f596f752063616e206f6e6c79207265766f6b652061636365737320746f20796f60008301527f7572206f776e20646f63756d656e74732e0000000000000000000000000000006020830152604082019050919050565b60006020820190506114a360008301846112c5565b92915050565b600060e0820190506114be600083018a6112c5565b81810360208301526114d081896113ef565b905081810360408301526114e481886113ef565b905081810360608301526114f881876113ef565b9050818103608083015261150c81866113ef565b905061151b60a08301856113a7565b61152860c08301846113a7565b98975050505050505050565b6000602082019050818103600083015261154e81846112d4565b905092915050565b600060208201905081810360008301526115708184611332565b905092915050565b6000602082019050818103600083015261159181611428565b9050919050565b6000604051905081810181811067ffffffffffffffff821117156115bf576115be6118d8565b5b8060405250919050565b600067ffffffffffffffff8211156115e4576115e36118d8565b5b601f19601f8301169050602081019050919050565b6000819050602082019050919050565b6000819050602082019050919050565b600081519050919050565b600081519050919050565b600081519050919050565b6000602082019050919050565b6000602082019050919050565b600082825260208201905092915050565b600082825260208201905092915050565b600082825260208201905092915050565b600082825260208201905092915050565b60006116a3826117d2565b91506116ae836117d2565b9250817f7fffffffffffffffffffffffffffffffffffffffffffffffffffffffffffffff038313600083121516156116e9576116e861187a565b5b817f80000000000000000000000000000000000000000000000000000000000000000383126000831216156117215761172061187a565b5b828201905092915050565b6000611737826117d2565b9150611742836117d2565b9250827f80000000000000000000000000000000000000000000000000000000000000000182126000841215161561177d5761177c61187a565b5b827f7fffffffffffffffffffffffffffffffffffffffffffffffffffffffffffffff0182136000841216156117b5576117b461187a565b5b828203905092915050565b60006117cb826117dc565b9050919050565b6000819050919050565b600073ffffffffffffffffffffffffffffffffffffffff82169050919050565b6000819050919050565b82818337600083830152505050565b60005b83811015611833578082015181840152602081019050611818565b83811115611842576000848401525b50505050565b6000600282049050600182168061186057607f821691505b60208210811415611874576118736118a9565b5b50919050565b7f4e487b7100000000000000000000000000000000000000000000000000000000600052601160045260246000fd5b7f4e487b7100000000000000000000000000000000000000000000000000000000600052602260045260246000fd5b7f4e487b7100000000000000000000000000000000000000000000000000000000600052604160045260246000fd5b6000601f19601f8301169050919050565b611921816117c0565b811461192c57600080fd5b50565b611938816117fc565b811461194357600080fd5b5056fea26469706673582212207db27ebb7042718d1ceb7ef2209b74156e798150927d3885e4bc1bb14111c18164736f6c63430008000033",
  "immutableReferences": {},
  "source": "// SPDX-License-Identifier: UNLICENSED\r\npragma solidity >=0.8.0;\r\n\r\ncontract MediStore {\r\n    /*\r\n     * List Of Every User Details.\r\n     * mapping: userAddress -> userDetails\r\n     */\r\n    mapping(address => User) users;\r\n\r\n    /*\r\n     * A user can specify, which doctors are allowed to view their medical records.\r\n     * Access is granted, when the user adds his address to a doctors list of patients.\r\n     * As soon as the user address is removed from the list, access for the doctor is revoked.\r\n     *\r\n     * mapping: doctorsAddress -> patientsAddresses\r\n     */\r\n    mapping(address => address[]) public doctorsPermissions;\r\n\r\n    /*\r\n     * Patient & Doctor Structure\r\n     */\r\n    struct User {\r\n        address id;\r\n        string name;\r\n        string role;\r\n        string dob;\r\n        string userAddress;\r\n        string[] data;\r\n        int256 totalDoctors;\r\n        int256 totalDocuments;\r\n    }\r\n\r\n    /*\r\n     * Create a new user\r\n     */\r\n    function newUser(\r\n        string memory _name,\r\n        string memory _role,\r\n        string memory _dob,\r\n        string memory _userAddress\r\n    ) public {\r\n        users[msg.sender].id = msg.sender;\r\n        users[msg.sender].name = _name;\r\n        users[msg.sender].role = _role;\r\n        users[msg.sender].dob = _dob;\r\n        users[msg.sender].userAddress = _userAddress;\r\n        users[msg.sender].totalDoctors = 0;\r\n        users[msg.sender].totalDocuments = 0;\r\n    }\r\n\r\n    /*\r\n     * Get User Data\r\n     */\r\n    function getUserData(address _userAddress)\r\n        public\r\n        view\r\n        returns (\r\n            address id,\r\n            string memory name,\r\n            string memory role,\r\n            string memory dob,\r\n            string memory userAddress,\r\n            int256 totalDoctors,\r\n            int256 totalDocuments\r\n        )\r\n    {\r\n        return (\r\n            users[_userAddress].id,\r\n            users[_userAddress].name,\r\n            users[_userAddress].role,\r\n            users[_userAddress].dob,\r\n            users[_userAddress].userAddress,\r\n            users[_userAddress].totalDoctors,\r\n            users[_userAddress].totalDocuments\r\n        );\r\n    }\r\n\r\n    /*\r\n     * Get All Patient Documents\r\n     */\r\n    function getPatientDocuments() public view returns (string[] memory) {\r\n        return users[msg.sender].data;\r\n    }\r\n\r\n    /*\r\n     * Add Patient Document\r\n     */\r\n    function addPatientDocument(string memory _data) public {\r\n        users[msg.sender].data.push(_data);\r\n        users[msg.sender].totalDocuments += 1;\r\n    }\r\n\r\n    /*\r\n     * Remove Patient Document\r\n     */\r\n    function removePatientDocument(uint256 _index) public {\r\n        delete users[msg.sender].data[_index];\r\n        users[msg.sender].totalDocuments -= 1;\r\n    }\r\n\r\n    /*\r\n     * Allow doctor to view all your documents.\r\n     */\r\n    function giveAccessToDoctor(address _doctor) public {\r\n        users[msg.sender].totalDoctors += 1;\r\n        doctorsPermissions[_doctor].push(msg.sender);\r\n    }\r\n\r\n    /*\r\n     * Revoke doctors access from your documents.\r\n     */\r\n    function revokeAccessFromDoctor(address doctor, uint256 index) public {\r\n        require(\r\n            doctorsPermissions[doctor][index] == msg.sender,\r\n            \"You can only revoke access to your own documents.\"\r\n        );\r\n        delete doctorsPermissions[doctor][index];\r\n        users[msg.sender].totalDoctors -= 1;\r\n    }\r\n\r\n    /*\r\n     * Get All User of Particular Doctor\r\n     */\r\n    function getUsersOfParticularDoctor(address _doctor)\r\n        public\r\n        view\r\n        returns (address[] memory)\r\n    {\r\n        return doctorsPermissions[_doctor];\r\n    }\r\n}\r\n",
  "sourcePath": "E:/Workspace/Project/MediStore/frontend/src/contracts/MediStore.sol",
  "compiler": {
    "name": "solc",
    "version": "0.8.0+commit.c7dfd78e.Emscripten.clang"
  },
  "schemaVersion": "3.2.3",
  "updatedAt": "2022-02-25T13:49:11.668Z",
  "networkType": "ethereum",
  "devdoc": {
    "kind": "dev",
    "methods": {},
    "version": 1
  },
  "userdoc": {
    "kind": "user",
    "methods": {},
    "version": 1
  }
}