{
  "contractName": "MediStore",
  "abi": [
    {
      "constant": false,
      "inputs": [
        {
          "name": "_name",
          "type": "string"
        },
        {
          "name": "_role",
          "type": "string"
        }
      ],
      "name": "newUser",
      "outputs": [],
      "payable": false,
      "stateMutability": "nonpayable",
      "type": "function"
    },
    {
      "constant": false,
      "inputs": [
        {
          "name": "_data",
          "type": "string"
        }
      ],
      "name": "addImage",
      "outputs": [],
      "payable": false,
      "stateMutability": "nonpayable",
      "type": "function"
    },
    {
      "constant": true,
      "inputs": [],
      "name": "getUserData",
      "outputs": [
        {
          "name": "name",
          "type": "string"
        },
        {
          "name": "role",
          "type": "string"
        },
        {
          "name": "dataSize",
          "type": "uint256"
        }
      ],
      "payable": false,
      "stateMutability": "view",
      "type": "function"
    },
    {
      "constant": true,
      "inputs": [],
      "name": "getDataSize",
      "outputs": [
        {
          "name": "",
          "type": "uint256"
        }
      ],
      "payable": false,
      "stateMutability": "view",
      "type": "function"
    },
    {
      "constant": true,
      "inputs": [
        {
          "name": "_index",
          "type": "uint256"
        }
      ],
      "name": "getData",
      "outputs": [
        {
          "name": "",
          "type": "string"
        }
      ],
      "payable": false,
      "stateMutability": "view",
      "type": "function"
    }
  ],
  "bytecode": "0x608060405234801561001057600080fd5b50610935806100206000396000f30060806040526004361061006d576000357c0100000000000000000000000000000000000000000000000000000000900463ffffffff1680630178fe3f14610072578063166f1779146101185780631f34563c1461018157806322e8c87d146102305780637d036b2714610333575b600080fd5b34801561007e57600080fd5b5061009d6004803603810190808035906020019092919050505061035e565b6040518080602001828103825283818151815260200191508051906020019080838360005b838110156100dd5780820151818401526020810190506100c2565b50505050905090810190601f16801561010a5780820380516001836020036101000a031916815260200191505b509250505060405180910390f35b34801561012457600080fd5b5061017f600480360381019080803590602001908201803590602001908080601f0160208091040260200160405190810160405280939291908181526020018383808284378201915050505050509192919290505050610458565b005b34801561018d57600080fd5b5061022e600480360381019080803590602001908201803590602001908080601f0160208091040260200160405190810160405280939291908181526020018383808284378201915050505050509192919290803590602001908201803590602001908080601f01602080910402602001604051908101604052809392919081815260200183838082843782019150505050505091929192905050506104d9565b005b34801561023c57600080fd5b50610245610609565b604051808060200180602001848152602001838103835286818151815260200191508051906020019080838360005b8381101561028f578082015181840152602081019050610274565b50505050905090810190601f1680156102bc5780820380516001836020036101000a031916815260200191505b50838103825285818151815260200191508051906020019080838360005b838110156102f55780820151818401526020810190506102da565b50505050905090810190601f1680156103225780820380516001836020036101000a031916815260200191505b509550505050505060405180910390f35b34801561033f57600080fd5b50610348610818565b6040518082815260200191505060405180910390f35b60606000803373ffffffffffffffffffffffffffffffffffffffff1673ffffffffffffffffffffffffffffffffffffffff168152602001908152602001600020600301828154811015156103ae57fe5b906000526020600020018054600181600116156101000203166002900480601f01602080910402602001604051908101604052809291908181526020018280546001816001161561010002031660029004801561044c5780601f106104215761010080835404028352916020019161044c565b820191906000526020600020905b81548152906001019060200180831161042f57829003601f168201915b50505050509050919050565b6000803373ffffffffffffffffffffffffffffffffffffffff1673ffffffffffffffffffffffffffffffffffffffff1681526020019081526020016000206003018190806001815401808255809150509060018203906000526020600020016000909192909190915090805190602001906104d4929190610864565b505050565b336000803373ffffffffffffffffffffffffffffffffffffffff1673ffffffffffffffffffffffffffffffffffffffff16815260200190815260200160002060000160006101000a81548173ffffffffffffffffffffffffffffffffffffffff021916908373ffffffffffffffffffffffffffffffffffffffff160217905550816000803373ffffffffffffffffffffffffffffffffffffffff1673ffffffffffffffffffffffffffffffffffffffff16815260200190815260200160002060010190805190602001906105ae929190610864565b50806000803373ffffffffffffffffffffffffffffffffffffffff1673ffffffffffffffffffffffffffffffffffffffff1681526020019081526020016000206002019080519060200190610604929190610864565b505050565b60608060008060003373ffffffffffffffffffffffffffffffffffffffff1673ffffffffffffffffffffffffffffffffffffffff1681526020019081526020016000206001016000803373ffffffffffffffffffffffffffffffffffffffff1673ffffffffffffffffffffffffffffffffffffffff1681526020019081526020016000206002016000803373ffffffffffffffffffffffffffffffffffffffff1673ffffffffffffffffffffffffffffffffffffffff16815260200190815260200160002060030180549050828054600181600116156101000203166002900480601f01602080910402602001604051908101604052809291908181526020018280546001816001161561010002031660029004801561076a5780601f1061073f5761010080835404028352916020019161076a565b820191906000526020600020905b81548152906001019060200180831161074d57829003601f168201915b50505050509250818054600181600116156101000203166002900480601f0160208091040260200160405190810160405280929190818152602001828054600181600116156101000203166002900480156108065780601f106107db57610100808354040283529160200191610806565b820191906000526020600020905b8154815290600101906020018083116107e957829003601f168201915b50505050509150925092509250909192565b60008060003373ffffffffffffffffffffffffffffffffffffffff1673ffffffffffffffffffffffffffffffffffffffff16815260200190815260200160002060030180549050905090565b828054600181600116156101000203166002900490600052602060002090601f016020900481019282601f106108a557805160ff19168380011785556108d3565b828001600101855582156108d3579182015b828111156108d25782518255916020019190600101906108b7565b5b5090506108e091906108e4565b5090565b61090691905b808211156109025760008160009055506001016108ea565b5090565b905600a165627a7a7230582070befd0a99f66d18ed96c90a57c5256e11738f6f09d0c2e72f4cc0135fefb9010029",
  "source": "pragma solidity 0.4.24;\r\n\r\ncontract MediStore {\r\n    mapping(address => User) users;\r\n\r\n    struct User {\r\n        address id;\r\n        string name;\r\n        string role;\r\n        string[] data;\r\n    }\r\n\r\n    // Create a new user.\r\n    function newUser(string _name, string _role) public {\r\n        // In a mapping, all elements are defined. They're just empty by default\r\n        // So, just setting the id will create a new user;\r\n        users[msg.sender].id = msg.sender;\r\n        users[msg.sender].name = _name;\r\n        users[msg.sender].role = _role;\r\n    }\r\n\r\n    // Add Image\r\n    function addImage(string _data) public {\r\n        users[msg.sender].data.push(_data);\r\n    }\r\n\r\n    // Solidity can't return string arrays. So we'll have to provide the _dataIndex\r\n    // Of the piece of data we want\r\n    function getUserData()\r\n        public\r\n        view\r\n        returns (\r\n            string name,\r\n            string role,\r\n            uint256 dataSize\r\n        )\r\n    {\r\n        return (\r\n            users[msg.sender].name,\r\n            users[msg.sender].role,\r\n            users[msg.sender].data.length\r\n        );\r\n    }\r\n\r\n    // Returns the amount of strings in a User's data array\r\n    function getDataSize() public view returns (uint256) {\r\n        return users[msg.sender].data.length;\r\n    }\r\n\r\n    // Returns the amount of strings in a User's data array\r\n    function getData(uint256 _index) public view returns (string) {\r\n        return users[msg.sender].data[_index];\r\n    }\r\n}\r\n",
  "sourcePath": "E:/Workspace/Project/MediStore/contracts/MediStore.sol",
  "compiler": {
    "name": "solc",
    "version": "0.4.24+commit.e67f0147.Emscripten.clang"
  },
  "schemaVersion": "3.2.3",
  "updatedAt": "2021-09-07T05:20:00.093Z",
  "networkType": "ethereum",
  "devdoc": {
    "methods": {}
  },
  "userdoc": {
    "methods": {}
  }
}